:020000021000EC
:10C0000000000220F9C2010021C3010023C3010086
:10C0100025C3010027C3010029C30100000000005F
:10C020000000000000000000000000002BC3010021
:10C030002DC30100000000002FC3010031C3010027
:10C0400033C3010033C3010033C3010033C3010014
:10C0500033C3010033C3010033C3010033C3010004
:10C0600033C3010033C3010033C3010033C30100F4
:10C0700033C3010033C3010033C3010033C30100E4
:10C0800033C3010033C3010033C3010033C30100D4
:10C0900033C3010033C3010033C3010033C30100C4
:10C0A00033C3010033C3010033C3010033C30100B4
:10C0B00033C3010033C30100000000000000000092
:10C0C00033C3010033C3010033C3010033C3010094
:10C0D00033C3010033C3010033C3010033C3010084
:10C0E00033C3010033C3010033C30100000000006B
:10C0F0000000000033C301000000000033C3010052
:10C10000000000000000000000000000000000002F
:10C11000000000000000000000000000000000001F
:10C12000000000000000000000000000000000000F
:10C1300000000000000000000000000000000000FF
:10C1400000000000000000000000000000000000EF
:10C1500000000000000000000000000000000000DF
:10C1600000000000000000000000000000000000CF
:10C1700000000000000000000000000000000000BF
:10C1800000000000000000000000000000000000AF
:10C19000000000000000000000000000000000009F
:10C1A000000000000000000000000000000000008F
:10C1B000000000000000000000000000000000007F
:10C1C000000000000000000000000000000000006F
:10C1D000000000000000000000000000000000005F
:10C1E000000000000000000000000000000000004F
:10C1F000000000000000000000000000000000003F
:10C200000348044B834202D0034B03B118477047E5
:10C210000C1200200C120020000000000548064906
:10C220000B1AD90F01EBA301491002D0034B03B144
:10C23000184770470C1200200C120020000000006C
:10C2400010B5064C237843B9FFF7DAFF044B13B15E
:10C250000448AFF300800123237010BD0C120020AE
:10C260000000000000E4010008B5044B1BB10449C4
:10C270000448AFF30080BDE80840CFE700000000AD
:10C280001012002000E40100A3F5803A704700BFBF
:10C29000154B002B08BF114B9D46FFF7F5FF002102
:10C2A0008B460F461148124A121A00F0B1FA0C4B95
:10C2B000002B00D098470B4B002B00D09847002054
:10C2C000002104000D000B4800F04AFA00F07CFA4F
:10C2D0002000290000F0BCF800F048FA0000080037
:10C2E0000000000000000000000002200C120020EE
:10C2F000B812002095C701000649074A074B9B1A50
:10C3000003DD043BC858D050FBDC00F0FFF8FFF71A
:10C31000BFFF00000CE40100981100200C12002067
:10C32000FEE7FEE7FEE7FEE7FEE7FEE7FEE7FEE7E5
:10C33000FEE7FEE7064B1A5C1F2A86BF054902F09E
:10C340001F024FF0A04101239340C1F80C35704704
:10C35000C8E3010000030050064B1A5C1F2A86BF89
:10C36000054902F01F024FF0A04101239340C1F89C
:10C3700008357047C8E3010000030050C30706D426
:10C38000830742BF2E4B0C22C3F81827704770B4A6
:10C390004FF08043D3F84036DA0722D44FF0A04361
:10C3A0002749032240264FF480754FF40074C3F8E8
:10C3B0001827C3F82027C1F82427C3F83027C3F86B
:10C3C00008654FF48052C3F80855C1F80845810745
:10C3D000C3F8082503D51A4B0C22C3F8182770BCE4
:10C3E00070474FF01023D3F8043303F00703072BF3
:10C3F000D4D1144B0122C3F80425D3F80024002A19
:10C40000FBD04FF010210020D1F804230D4C22F076
:10C41000070242F00402C1F80423C3F80405D4F86B
:10C420000034002BFBD0BFF34F8F0749074BCA687E
:10C4300002F4E0621343CB60BFF34F8F00BFFDE710
:10C440000003005000E0014000ED00E00400FA05A8
:10C450002DE9F04701202DED048B2B4EFFF78EFFC9
:10C460009FED279B46F001064FF0030940F6750A41
:10C47000484601F055FCB0EE490AF0EE690A41EC7D
:10C48000110B41EC180B00F0B3FA51EC100B01F05A
:10C4900061FF9AFBF0F8B8F1000F19D0C9F103075A
:10C4A00000253846FFF746FF4FF4FA744FF47A4000
:10C4B000B047013CFAD13846FFF74EFF4FF4FA740B
:10C4C0004FF47A40B047013CFAD10135A845E8D194
:10C4D000B0EE481AF0EE681AB0EE490AF0EE690ABA
:10C4E00000F086FA51EC100B01F034FF09F1FF392E
:10C4F000B9F1FF3F9AFBF0F303FB10AAB8D1B3E701
:10C500000000000000002440D0E3010010B4814B83
:10C510001B68082B21D0804AD2F8883043F470037E
:10C52000C2F88830BFF34F8FBFF36F8F794B1B6812
:10C53000082B00F0AA804FF01023D3F80022002A25
:10C54000C0F2B680D3F80432002BC0F2B180734B36
:10C55000734A1A605DF8044B70474FF080414FF00A
:10C5600080520020C1F80C016E4BC1F81001C1F8D7
:10C570003805D2F80414C3F82015D2F80814C3F80B
:10C580002415D2F80C14C3F82815D2F81014C3F8E7
:10C590002C15D2F81414C3F83015D2F81814C3F8B7
:10C5A0003415D2F81C14C3F84015D2F82014C3F87F
:10C5B0004415D2F82414C3F84815D2F82814C3F847
:10C5C0004C15D2F82C14C3F85015D2F83014C3F817
:10C5D0005415D2F83414C3F86015D2F83814C3F8DF
:10C5E0006415D2F83C04C3F868054F49D2F84004FA
:10C5F000C3F86C050968D2F84424C3F870250529EE
:10C6000037D84A4B5B5C13B1494B4A4A1A604A4BD4
:10C610005B5C63B13F4B49491B68434AFB20C1F84F
:10C620001805082B11687FF476AF052921D8444BF3
:10C630005B5C93B14348444B364C02681B682468EA
:10C64000394922F00F0203F00F031343082C096845
:10C6500003607FF460AF05290BD83C4B5B5C43B1B2
:10C660002C4B3B4A1B684FF40071082B11607FF480
:10C6700052AF4FF08043D3F80024D2077FF54BAF81
:10C680006FF00102C3F8002445E7274B1B68052B18
:10C6900008D94FF010224FF08043D2F80822C3F897
:10C6A000582548E72B4AD35C002B3FF444AFF0E712
:10C6B000294A0123C2F80435D2F80034002BFBD0FC
:10C6C0004FF010231221244AC3F80012D2F800348C
:10C6D000002BFBD04FF0102312211F4AC3F8041285
:10C6E000D2F80034002BFBD000231B49C2F80435DC
:10C6F000D1F80034002BFBD0BFF34F8F0649174B06
:10C70000CA6802F4E0621343CB60BFF34F8F00BFEF
:10C71000FDE700BF3001001000ED00E0981100209F
:10C720000090D00300C0004034010010E0E301009D
:10C730008C56004048810300E0E3010000F0004017
:10C74000E0E30100E40E004058020010E0E30100C5
:10C7500040960240D8E3010000E001400400FA05E1
:10C76000002301461A46184600F0A2B808B5074B48
:10C77000044613B1002100F0EBF8054B1868836AFA
:10C7800003B19847204600F031F900BF51C90100BC
:10C79000E8E3010038B50A4C0A4D641BA4100AD026
:10C7A00004F18043013B05EB8305013C55F8043956
:10C7B0009847002CF9D1BDE8384001F0FFBD00BF1B
:10C7C0000C1200200812002070B50D4E0D4D761B86
:10C7D000B61006D00024013455F8043B9847A64211
:10C7E000F9D1094E094D761B01F0E2FDB61006D0D5
:10C7F0000024013455F8043B9847A642F9D170BD96
:10C80000041200200412002008120020041200204C
:10C81000F0B4860746D0541E002A3CD0CAB2034664
:10C8200002E014F1FF3436D303F8012B9D07F8D151
:10C83000032C29D9CDB245EA05250F2C45EA05453B
:10C8400033D9A4F11006360903F1200707EB0617C8
:10C8500003F1100242E9045542E902551032BA428E
:10C86000F8D1721C14F00C0F03EB021204F00F0647
:10C8700013D0331F23F003030433134442F8045B43
:10C880009342FBD106F003042CB1C9B21C4403F857
:10C89000011B9C42FBD1F0BC704734461346002C70
:10C8A000F3D1F8E714460346C2E71A462646E0E706
:10C8B0002DE9F843224C25680DB36C681F2C3BDC36
:10C8C000984691460F46064688B1D5F8880028B3A9
:10C8D000D0F8003140F824900122A24000EB8401FE
:10C8E0001343022EC0F80031C1F8808010D0A31C81
:10C8F00001346C6045F823700020BDE8F883114EC8
:10C90000114D2560002ED8D03468C5F88840D4E792
:10C91000D0F804311A43C0F80421E8E70B4B5BB1AF
:10C920004FF48470AFF3008030B100236C68C0E92D
:10C930004033C5F88800CDE74FF0FF30DDE700BF9A
:10C94000B4120020000000002812002000000000A7
:10C950002DE9F04FDFF8908083B0D8F800500190B7
:10C960000F464FF0010A8DB16C68D5F88860013C24
:10C970000CD405F1080B67B12EB106F1800353F812
:10C980002430BB4205D014F1FF34F4D203B0BDE82B
:10C99000F08F6B685BF82420013BA34216BF002395
:10C9A0006C604BF82430002AEDD0D5F80490B6B175
:10C9B000D6F800110AFA04F30B4210D0D6F804019D
:10C9C00056F8241003420CD1019890476B68D8F8B0
:10C9D00000204B4501D1AA42D5D01546C3E7904768
:10C9E000F4E708469047F1E7B4120020FEE700BFE5
:10C9F000F8B52DED028B57EC106B55EC114B00F098
:10CA0000C7F8614BB0EE408AF0EE608A93F90030CF
:10CA100001332AD022462B462046294601F084FCC9
:10CA200018BB32463B463046394601F07DFC0028B3
:10CA300044D1002200233046394601F043FCD8B1EE
:10CA4000002200232046294601F03CFC00283DD16D
:10CA500045EC104B00F0DEFE38B12046294600229E
:10CA6000002301F039FC00285BD1B0EE480AF0EE5B
:10CA7000680ABDEC028BF8BDB0EE480AF0EE680A19
:10CA800000F0C8FE58B30022002351EC180B01F04F
:10CA900019FC0028E9D047EC106B00F0BBFE002821
:10CAA000E3D045EC104B00F0B5FE0028DDD001F0DE
:10CAB00079FC222303609FED2C8BD6E72046294684
:10CAC0000022002301F0FEFB0028CED09FED288B32
:10CAD000B0EE480AF0EE680ABDEC028BF8BD47ECF8
:10CAE000106B00F097FE0028CDD045EC104B00F005
:10CAF00091FE0028C7D053EC182B18EE100A1946E7
:10CB000001F012FC18BB01F04DFC2223036000224F
:10CB100000233046394601F0DFFB48B99FED168B04
:10CB2000A3E701F03FFC212303609FED158B9CE7F9
:10CB300045EC104B00F080FE22462B4651EC100BCA
:10CB400001F0C0FB0028E9D19FED0D8B8DE701F0CE
:10CB500029FC00220023212101601046194601F022
:10CB600073FA41EC180B80E70000000000000000A1
:10CB7000000000000000F03F000000000000F07F17
:10CB8000000000000000F0FF001200200000000084
:10CB90002DE9F04F51EC110B21F0004555EA00034F
:10CBA00093B03DD059EC108B694B29F000449C4266
:10CBB0004E4610EE10AA2CDC0F4611EE10CA36D0ED
:10CBC0009D4226DC624B9D4220D0002ECDE9000123
:10CBD00038DB4FF0000BBCF1000F4ED15C4B9D4297
:10CBE00000F094805B4B9D4200F0A180B7F1804F34
:10CBF00000F09E84584B9F423FD1002E3DDB49EC14
:10CC0000108B13B0BDE8F04F00F02EBDBCF1000F4B
:10CC1000DBD004F1404404F5801454EA0A030BD13C
:10CC20004C49002041EC100B13B0BDE8F08FB8F177
:10CC3000000F01D1A542C5DD484813B0BDE8F04F53
:10CC400000F0F2BD464B9D4277DCA3F154739D4248
:10CC50000EDD2B15A3F2FF33142B40F37184C3F1C7
:10CC600034032CFA03F202FA03F3634500F0B784AD
:10CC70004FF0000BBCF1000FB4D049EC108B00F06A
:10CC8000BFFD51EC100BBAF1000F22D124B1314B92
:10CC900026F040429A421CD1002F05DA02460B468C
:10CCA00000202C4901F0D0F9002EBBDA04F14044F9
:10CCB00004F5801454EA0B0340F0648402460B46EA
:10CCC0001046194600F0DEFE02460B4601F0BCF9A4
:10CCD000A8E7F30F03F1FF3A5BEA0A0330D0214BD8
:10CCE0009D4243DD03F104739D4240F3AF831E4B2D
:10CCF0009C4240F33B83002F40F33B8312A3D3E9D4
:10CD000000231046194601F075F88BE704F1404303
:10CD100003F5801353EA0A0382D0134B9C4240F37D
:10CD20005383002FC0F22583DDE900017AE7002F4D
:10CD3000C0F2F6834046494674E74FF0020B4AE7DB
:10CD400042464B46BCE700BF9C7500883CE4377EFA
:10CD50000000F07F0000F03F0000E03FECE3010046
:10CD6000FFFF3F430000E041FFFFEF3FD24B334066
:10CD7000002B40F0D3830022D04B01F03BF86FF042
:10CD800034060C462315CE4AC4F31304A3F2FF3332
:10CD900044F07F559E1994420D9645F4401540F39A
:10CDA000B083C84B9C4240F3F6839FEDAD7B8DED85
:10CDB000087B8DED107B9FEDAC7B8DED067B013606
:10CDC0000D96A5F580154FF00008DDE906232946EC
:10CDD000064600F057FEDDE90623CDE90A0130469C
:10CDE000294600F051FE02460B460020B64901F0EC
:10CDF0002BF903460C46CDE90E3402460B46DDE91D
:10CE00000A0100F0F7FF6B1043F0005303F5002315
:10CE10000A462F46014603EB08050023CDE902121E
:10CE20000293DDE902890024CDE904122B46224653
:10CE30004046494600F0DEFF02460B46DDE90A01A6
:10CE400000F020FEDDE90623CDE90A01204629464F
:10CE500000F018FE02460B463046394600F012FE3E
:10CE600042464B4600F0C6FF02460B46DDE90A018A
:10CE700000F008FEDDE90E2300F0BCFFDDE904450B
:10CE8000CDE9060122462B462046294600F0B2FF96
:10CE900077A3D3E9002304460D4600F0ABFF76A349
:10CEA000D3E9002300F0F0FD22462B4600F0A2FF5C
:10CEB00073A3D3E9002300F0E7FD22462B4600F0E0
:10CEC00099FF71A3D3E9002300F0DEFD22462B4633
:10CED00000F090FF6EA3D3E9002300F0D5FD2246B9
:10CEE0002B4600F087FF6CA3D3E9002300F0CCFDB4
:10CEF000224606460F462B462046294600F07AFF7A
:10CF000002460B463046394600F074FF424604465E
:10CF10000D464B46DDE9040100F0B6FDDDE90623D0
:10CF200000F068FF22462B4600F0AEFD4246064662
:10CF30000F464B464046494600F05CFF0022634BDB
:10CF4000CDE90A0100F0A0FD32463B4600F09CFD11
:10CF500002980D46044622462B464046494600F0BC
:10CF600049FF002280468946584B2046294600F05A
:10CF700089FDDDE90A2300F085FD02460B463046B7
:10CF8000394600F07FFDDDE9042300F033FF22463F
:10CF900006460F462B46DDE9060100F02BFF024650
:10CFA0000B463046394600F06FFD06460F460246F6
:10CFB0000B464046494600F067FD029838A3D3E986
:10CFC000002304460D4600F015FF4246CDE904015A
:10CFD0004B462046294600F055FD02460B4630469A
:10CFE000394600F04FFD30A3D3E9002300F002FFE3
:10CFF0002FA3D3E9002306460F462046294600F01A
:10D00000F9FE02460B463046394600F03DFDDDE9AB
:10D01000102300F039FD04460D980D4600F080FE07
:10D02000224606460F462B46DDE9040100F02CFDA2
:10D03000DDE9082300F028FD32463B4600F024FDE0
:10D04000029832463B468046894600F01BFDDDE9EA
:10D05000082300F017FDDDE9042339E0AFF3008079
:10D060000000000000000000000000000000F03F91
:10D07000EF4E454A287ECA3F65DBC9934A86CD3FBD
:10D0800001411DA96074D13F4D268F515555D53FA3
:10D09000FFAB6FDBB66DDB3F033333333333E33F3B
:10D0A000000000E009C7EE3FFD033ADC09C7EE3F90
:10D0B000F5015B14E02F3EBE0000F07F000040430E
:10D0C0008E98030079B60B000000F03F0000084086
:10D0D00000F0D8FC0B4602462946204600F0D2FC60
:10D0E0000BF1FF3353EA0A03CDE9020140F06781F7
:10D0F0009FEDB97B8DED047BDDE900230026104612
:10D10000194632461F4600F0BDFC42464B4600F031
:10D1100071FEDDE9002382468B46DDE9020100F065
:10D1200069FE02460B465046594600F0ADFC3246B9
:10D130008B4682463B4640464946CDE900AB00F06F
:10D1400059FE0B460246804689465046594600F035
:10D150009BFCB94B994204460D468B4640F30C812B
:10D1600001F13F4303F5E003034340F0FD819CA33D
:10D17000D3E90023DDE9000100F086FC42460646C3
:10D180000F464B462046294600F07CFC02460B46E3
:10D190003046394601F0BEF8002840F0E581CBF377
:10D1A0000A534FF48012A3F2FE3342FA03F35B44B6
:10D1B000C3F30A52A14DA2F2FF321541C3F3130487
:10D1C00023EA05010020C2F1140A44F48014BBF1E3
:10D1D000000F02460B4644FA0AFA40464946B8BFD9
:10D1E000CAF1000A00F04EFC804689464246DDE95D
:10D1F00000014B4600F048FC4FEA0A5B0D46002454
:10D2000079A3D3E900232046294600F0F3FD4246E6
:10D2100006460F464B462046294600F033FC0246A0
:10D220000B46DDE9000100F02DFC71A3D3E90023DA
:10D2300000F0E0FD70A3D3E9002380468946204634
:10D24000294600F0D7FD02460B464046494600F00D
:10D250001BFC8046894602460B463046394600F0A4
:10D2600013FC32463B4604460D4600F00BFC0246DA
:10D270000B464046494600F005FC2246804689465A
:10D280002B462046294600F0B5FD5DA3D3E90023D7
:10D2900006460F4600F0AEFD5BA3D3E9002300F085
:10D2A000F1FB32463B4600F0A5FD59A3D3E900232C
:10D2B00000F0EAFB32463B4600F09CFD56A3D3E962
:10D2C000002300F0DFFB32463B4600F093FD54A301
:10D2D000D3E9002300F0D8FB32463B4600F08AFD3C
:10D2E00002460B462046294600F0CCFB06460F4678
:10D2F00002460B462046294600F07CFD0022CDE97F
:10D3000000014FF080433046394600F0BBFB024637
:10D310000B46DDE9000100F097FE424606460F4647
:10D320004B462046294600F065FD42464B4600F03C
:10D33000ABFB02460B463046394600F0A3FB2246C3
:10D340002B4600F09FFB02460B4600203C4900F0B4
:10D3500099FB8B44BBF5801F02460B46C0F2378118
:10D360005946DDE9042300F045FD5BE4002FFFF69C
:10D37000C5AC0020002155E4DFF8CCC021F000430B
:10D38000634540F3EB802F4B0B4403430AD14246E5
:10D390004B4600F077FBDDE9002300F0B1FF0028E9
:10D3A0003FF4FDAEDDE904011FA3D3E9002300F043
:10D3B00021FD1DA3D3E9002300F01CFD32E49FED05
:10D3C0001C7B8DED047B97E6002FD2DADDE900347B
:10D3D000184604F1004125E4000000000000F0BF01
:10D3E000FE822B654715973C00000000432EE63F68
:10D3F000EF39FAFE422EE63F396CA80C615C20BE84
:10D40000D0A4BE726937663EF16BD2C541BDBB3E4A
:10D410002CDE25AF6A56113F93BDBE166CC1663F28
:10D420003E5555555555C53F59F3F8C21F6EA501D8
:10D43000000000000000F03FFFFF8F40FFFF0F00E3
:10D440000000F03F00346F3FFFCB9040824B9C4286
:10D450008CDD824B9C423FF74EAC00227F4B00F0AC
:10D4600011FB69A3D3E9002304460D4600F0C2FC7A
:10D4700067A3D3E9002306460F462046294600F05D
:10D48000B9FC002280468946754B2046294600F0AB
:10D49000B1FC02460B4660A1D1E9000100F0F2FAAE
:10D4A00022462B4600F0A6FC02460B4600206D49A2
:10D4B00000F0E8FA2246CDE902012B462046294633
:10D4C00000F098FC02460B46DDE9020100F092FCF8
:10D4D00053A3D3E9002300F08DFC02460B464046DF
:10D4E000494600F0CFFA02460B4604460D46304648
:10D4F000394600F0C9FA00208046894632463B464C
:10D50000E6E59FED497B8DED087B8DED107B9FED72
:10D51000487B4FF000088DED067B56E4002631E491
:10D5200042464B4600204D4900F08EFDFFF77ABB86
:10D5300042464B464046494600F05CFCFFF772BB52
:10D54000BCF1000F36D1C3F1140345FA03F202FA1D
:10D5500003F3AB424DD0E346FFF744BB414A93424D
:10D560004DDCB346B2464AE6DDE9040132A3D3E915
:10D57000002300F03FFC30A3D3E9002300F03AFC85
:10D58000FFF750BBBBF1010F7FF44CAB01F100433F
:10D590001946FFF747BB9FED2A7B8DED087B9FED7A
:10D5A0002A7B8DED107B9FED2A7B4FF480288DED3B
:10D5B000067B0AE449EC108B00F022F951EC100BC9
:10D5C000BAF1000F7FF4BCABD346FFF75FBB504608
:10D5D00043EC102B00F0C0F951EC100BC1E602F047
:10D5E0000102C2F1020BBCF1000F3FF4FBAAFFF7EE
:10D5F00044BB02F00102C2F1020BFFF7F3BA1B15A4
:10D60000CFE500BFAFF30080000000604715F73F93
:10D6100044DF5DF80BAE543E555555555555D53F35
:10D62000FE822B654715F73F000000000000000058
:10D63000000000000000F03F9C7500883CE4377E4D
:10D640000000004003B8E23F06D0CF43EBFD4C3E64
:10D65000000000000000F83FFEFFEF3F0000F03F39
:10D660000000D03F0000E03F2DE9F041634955EC58
:10D67000104BA94300F09F80002D2B4610EE102A7E
:10D6800052DD5FEA255E00F0B180C3F31303AEF212
:10D69000FF3E43F48013D10F1EF0010F01EB430353
:10D6A0004FEA420403D0E40F04EB430394004FF02D
:10D6B000000C4FEA6E0E664616254FF40012B118A4
:10D6C000994202DC5B1A8E1894445B00013D03EB27
:10D6D000D4734FEA52024FEA4404F0D12F4620207F
:10D6E0004FF0004209E041D0E10F01384FEA520209
:10D6F00001EB43034FEA440441D0B34202EB05017E
:10D70000F1DD002901EB020509DBB0469B1BA142BC
:10D7100088BF03F1FF33641A17444646E4E7002D3F
:10D72000F3DB06F10108F1E725F00041214339D090
:10D73000002D50D1D40A153B52052146002CF9D0BA
:10D74000E50256D4002000E028464900CC0200F152
:10D750000105F9D50C461146AA40C5F1200521FA6C
:10D7600005F5A3EB000E45EA04038EE7A142BBD802
:10D77000002901EB0205D2DB98460023CBE72343C7
:10D7800012D178084FEA6C0101F17F511CF0010FB2
:10D7900001F5001118BF40F0004001EB0E530246A6
:10D7A00043EC102BBDE8F0817B1C16BF781C0CF1FC
:10D7B000010C4008E6E710EE102A2B4610EE100A86
:10D7C000294600F017FB22462B4600F05DF941EC9C
:10D7D000100BBDE8F0812046294600F053F90246BF
:10D7E0000B4600F031FC41EC100BDBE72946734699
:10D7F000A8E7114620254FF0FF30B0E70000F07F8A
:10D8000051EC100B10EE102A21F0004343EC102BCA
:10D81000704700BF10EE903A43F0004000F58010D2
:10D82000C00F7047000000009FED010B704700BF64
:10D83000000000000000F87FF0B553EC102BC3F39C
:10D840000A56A6F2FF30132883B019464FEAD37464
:10D8500010EE105A37DC00282DDB3D4E064103EA5E
:10D86000060717432BD0760833401D430CD04FF4E6
:10D870008023132821EA060643FA00F141EA060153
:10D880000CBF4FF000450025324800EBC4042A4687
:10D89000D4E900450B462046294600F0F5F8CDE9CD
:10D8A000000122462B46DDE9000100F0EBF841ECD7
:10D8B000100B03B0F0BD23F00040104322D143EC25
:10D8C000102B03B0F0BD332809DDB0F5806FF6D121
:10D8D00010EE100A00F0D8F841EC100BF1E7A6F2B8
:10D8E00013464FF0FF30F0400242E8D040080242B9
:10D8F000CAD04FF0804325EA000043FA06F640EA1A
:10D900000605C1E7C3F31300104345420543114820
:10D9100000EBC400D0E90067590C2D0B490405F455
:10D92000002545EA01033046394600F0ADF8CDE95F
:10D9300000013B463246DDE9000100F0A3F821F08A
:10D94000004343EAC47141EC100B03B0F0BD00BFCB
:10D95000FFFF0F00F0E3010038B553EC102BC3F3C9
:10D960000A511C46054681BB10EE101A23F00044F4
:10D97000214329D0194600223D4B3E4C10EE100A9F
:10D9800000F038FAA54202460B4616DB0C46C1F3FE
:10D990000A513639294440F2FE70814221DC0029C7
:10D9A00047DC11F1350F34DA4CF250318D4218DC7E
:10D9B000002B27A1D1E9000144DB25A3D3E90023F3
:10D9C00000F018FA41EC100B38BD40F2FF708142B4
:10D9D000E0D110EE100A194600F056F841EC100B99
:10D9E00038BD002B1CA1D1E9000107DB1AA3D3E944
:10D9F000002300F0FFF941EC100B38BD18A1D1E96C
:10DA0000000115A3D3E9002300F0F4F941EC100B59
:10DA1000F3E724F0FF4424F4E004363144EA0153F0
:10DA2000104619460022144B00F0E4F941EC100BAB
:10DA300038BD24F0FF4424F4E00444EA015343ECED
:10DA4000102B38BD08A1D1E90001B6E7AFF3008083
:10DA500059F3F8C21F6EA5019C7500883CE4377E1F
:10DA60009C7500883CE437FE59F3F8C21F6EA5810F
:10DA700000005043B03CFFFF0000903C81F00041AB
:10DA800002E000BF83F0004330B54FEA41044FEAA3
:10DA9000430594EA050F08BF90EA020F1FBF54EA3E
:10DAA000000C55EA020C7FEA645C7FEA655C00F0DA
:10DAB000E2804FEA5454D4EB5555B8BF6D420CDDAB
:10DAC0002C4480EA020281EA030382EA000083EA2E
:10DAD000010180EA020281EA0303362D88BF30BDCE
:10DAE00011F0004F4FEA01314FF4801C4CEA113124
:10DAF00002D0404261EB410113F0004F4FEA033383
:10DB00004CEA133302D0524263EB430394EA050F0D
:10DB100000F0A780A4F10104D5F1200E0DDB02FA7C
:10DB20000EFC22FA05F2801841F1000103FA0EF210
:10DB3000801843FA05F359410EE0A5F120050EF1D6
:10DB4000200E012A03FA0EFC28BF4CF0020C43FA07
:10DB500005F3C01851EBE37101F0004507D54FF014
:10DB6000000EDCF1000C7EEB00006EEB0101B1F564
:10DB7000801F1BD3B1F5001F0CD349085FEA3000AA
:10DB80004FEA3C0C04F101044FEA445212F5800FB5
:10DB900080F09A80BCF1004F08BF5FEA500C50F152
:10DBA000000041EB045141EA050130BD5FEA4C0C35
:10DBB000404141EB0101013C28BFB1F5801FE9D292
:10DBC00091F0000F04BF01460020B1FA81F308BFB5
:10DBD0002033A3F10B03B3F120020CDA0C3208DD81
:10DBE00002F1140CC2F10C0201FA0CF021FA02F15C
:10DBF0000CE002F11402D8BFC2F1200C01FA02F1CC
:10DC000020FA0CFCDCBF41EA0C019040E41AA2BFF0
:10DC100001EB0451294330BD6FEA04041F3C1CDAB8
:10DC20000C340EDC04F11404C4F1200220FA04F0D8
:10DC300001FA02F340EA030021FA04F345EA030182
:10DC400030BDC4F10C04C4F1200220FA02F001FA44
:10DC500004F340EA0300294630BD21FA04F02946C6
:10DC600030BD94F0000F83F4801306BF81F480115F
:10DC70000134013D4EE77FEA645C18BF7FEA655CD2
:10DC800029D094EA050F08BF90EA020F05D054EAA4
:10DC9000000C04BF1946104630BD91EA030F1EBFA9
:10DCA0000021002030BD5FEA545C05D140004941AD
:10DCB00028BF41F0004130BD14F580043CBF01F5A0
:10DCC000801130BD01F0004545F0FE4141F4700186
:10DCD0004FF0000030BD7FEA645C1ABF1946104661
:10DCE0007FEA655C1CBF0B46024650EA013406BF62
:10DCF00052EA033591EA030F41F4002130BD00BF21
:10DD000090F0000F04BF0021704730B54FF48064DD
:10DD100004F132044FF000054FF0000150E700BF5E
:10DD200090F0000F04BF0021704730B54FF48064BD
:10DD300004F1320410F0004548BF40424FF00001AA
:10DD40003EE700BF42004FEAE2014FEA31014FEAED
:10DD500002701FBF12F07F4393F07F4F81F060513C
:10DD6000704732F07F4208BF704793F07F4F04BF87
:10DD700041F40021704730B54FF4607401F0004564
:10DD800021F000411CE700BF50EA010208BF7047C4
:10DD900030B54FF000050AE050EA010208BF7047B5
:10DDA00030B511F0004502D5404261EB41014FF41E
:10DDB000806404F132045FEA915C3FF4D8AE4FF026
:10DDC00003025FEADC0C18BF03325FEADC0C18BF09
:10DDD000033202EBDC02C2F1200300FA03FC20FA5A
:10DDE00002F001FA03FE40EA0E0021FA02F11444A7
:10DDF000BDE600BF70B54FF0FF0C4CF4E06C1CEAC0
:10DE000011541DBF1CEA135594EA0C0F95EA0C0F30
:10DE100000F0DEF82C4481EA030621EA4C5123EAA3
:10DE20004C5350EA013518BF52EA033541F48011D2
:10DE300043F4801338D0A0FB02CE4FF00005E1FB85
:10DE400002E506F00042E0FB03E54FF00006E1FBCF
:10DE500003569CF0000F18BF4EF0010EA4F1FF0412
:10DE6000B6F5007F64F5407404D25FEA4E0E6D4152
:10DE700046EB060642EAC62141EA55514FEAC52063
:10DE800040EA5E504FEACE2EB4F1FD0C88BFBCF5DF
:10DE9000E06F1ED8BEF1004F08BF5FEA500E50F190
:10DEA000000041EB045170BD06F0004646EA010156
:10DEB00040EA020081EA0301B4EB5C04C2BFD4EB88
:10DEC0000C0541EA045170BD41F480114FF0000E81
:10DED000013C00F3AB8014F1360FDEBF002001F0EF
:10DEE000004170BDC4F10004203C35DA0C341BDC69
:10DEF00004F11404C4F1200500FA05F320FA04F03B
:10DF000001FA05F240EA020001F0004221F000416E
:10DF100010EBD37021FA04F642EB06015EEA430EE1
:10DF200008BF20EAD37070BDC4F10C04C4F1200511
:10DF300000FA04F320FA05F001FA04F240EA0200C4
:10DF400001F0004110EBD37041F100015EEA430E95
:10DF500008BF20EAD37070BDC4F1200500FA05F2B5
:10DF60004EEA020E20FA04F301FA05F243EA020334
:10DF700021FA04F001F0004121FA04F220EA020043
:10DF800000EBD3705EEA430E08BF20EAD37070BD89
:10DF900094F0000F0FD101F00046400041EB010169
:10DFA00011F4801F08BF013CF7D041EA060195F04B
:10DFB000000F18BF704703F00046520043EB030305
:10DFC00013F4801F08BF013DF7D043EA06037047F2
:10DFD00094EA0C0F0CEA135518BF95EA0C0F0CD0FD
:10DFE00050EA410618BF52EA4306D1D181EA030143
:10DFF00001F000414FF0000070BD50EA410606BF3D
:10E000001046194652EA430619D094EA0C0F02D181
:10E0100050EA013613D195EA0C0F05D152EA0336C6
:10E020001CBF104619460AD181EA030101F00041E4
:10E0300041F0FE4141F470014FF0000070BD41F02D
:10E04000FE4141F4780170BD70B54FF0FF0C4CF407
:10E05000E06C1CEA11541DBF1CEA135594EA0C0F26
:10E0600095EA0C0F00F0A7F8A4EB050481EA030E73
:10E0700052EA03354FEA013100F088804FEA03335A
:10E080004FF0805545EA131343EA12634FEA022228
:10E0900045EA111545EA10654FEA00260EF00041E9
:10E0A0009D4208BF964244F1FD0404F5407402D23B
:10E0B0005B084FEA3202B61A65EB03055B084FEACC
:10E0C00032024FF480104FF4002CB6EB020E75EBC9
:10E0D000030E22BFB61A754640EA0C005B084FEAF1
:10E0E0003202B6EB020E75EB030E22BFB61A75466E
:10E0F00040EA5C005B084FEA3202B6EB020E75EBB9
:10E10000030E22BFB61A754640EA9C005B084FEA30
:10E110003202B6EB020E75EB030E22BFB61A75463D
:10E1200040EADC0055EA060E18D04FEA051545EA2C
:10E1300016754FEA06164FEAC30343EA52734FEAD5
:10E14000C2025FEA1C1CC0D111F4801F0BD141EA4E
:10E1500000014FF000004FF0004CB6E711F4801FB3
:10E1600004BF01430020B4F1FD0C88BFBCF5E06F93
:10E170003FF6AFAEB5EB030C04BFB6EB020C5FEAA3
:10E18000500C50F1000041EB045170BD0EF0004EF8
:10E190004EEA113114EB5C04C2BFD4EB0C0541EA2A
:10E1A000045170BD41F480114FF0000E013C90E627
:10E1B00045EA060E8DE60CEA135594EA0C0F08BFEB
:10E1C00095EA0C0F3FF43BAF94EA0C0F0AD150EAEA
:10E1D00001347FF434AF95EA0C0F7FF425AF10467D
:10E1E00019462CE795EA0C0F06D152EA03353FF4A5
:10E1F000FDAE1046194622E750EA410618BF52EA22
:10E2000043067FF4C5AE50EA41047FF40DAF52EAF5
:10E2100043057FF4EBAE12E74FF0FF3C06E000BF92
:10E220004FF0010C02E000BF4FF0010C4DF804CD9F
:10E230004FEA410C7FEA6C5C4FEA430C18BF7FEA5F
:10E240006C5C1BD001B050EA410C0CBF52EA430C8D
:10E2500091EA030F02BF90EA020F0020704710F10D
:10E26000000F91EA030F58BF994208BF90422CBF9C
:10E27000D8176FEAE37040F0010070474FEA410C95
:10E280007FEA6C5C02D150EA013C07D14FEA430CB3
:10E290007FEA6C5CD6D152EA033CD3D05DF8040B24
:10E2A000704700BF8446104662468C461946634656
:10E2B00000E000BF01B5FFF7B7FF002848BF10F12D
:10E2C000000F01BD4DF808EDFFF7F4FF0CBF012072
:10E2D00000205DF808FB00BF4DF808EDFFF7EAFFEE
:10E2E00034BF012000205DF808FB00BF4DF808EDA9
:10E2F000FFF7E0FF94BF012000205DF808FB00BF9E
:10E300004DF808EDFFF7CEFF94BF012000205DF827
:10E3100008FB00BF4DF808EDFFF7C4FF34BF012034
:10E3200000205DF808FB00BF4FEA410C7FEA6C5CFF
:10E3300002D150EA013C0AD14FEA430C7FEA6C5CFF
:10E3400002D152EA033C02D14FF0000070474FF077
:10E35000010070474FEA410212F5001215D211D5A3
:10E360006FF47873B3EB625212D94FEAC12343F0D2
:10E37000004343EA505311F0004F23FA02F018BF54
:10E38000404270474FF00000704750EA013005D11D
:10E3900011F0004008BF6FF0004070474FF00000E0
:10E3A000704700BF014B1868704700BF9C110020E8
:10E3B000F8B500BFF8BC08BC9E467047F8B500BF72
:10E3C000F8BC08BC9E4670470608290C00000000F7
:10E3D0000338FDD870470000000000000101000074
:10E3E0000100000000000000A0110020000000005B
:10E3F000000000000000304300000000000030C3B7
:04E400000000000018
:08E4040084DEFF7F010000002F
:10E40C000090D003A01100200000000000000000CC
:10E41C0000000000000000000000000000000000F0
:10E42C0000000000000000000000000000000000E0
:10E43C0000000000000000000000000000000000D0
:10E44C0000000000000000000000000000000000C0
:10E45C0000000000000000000000000000000000B0
:10E46C000000000000000000FF00000069C2010075
:04E47C0041C2010098
:040000031000C2F92E
:00000001FF
